{
  "contractName": "Donation",
  "abi": [
    {
      "inputs": [],
      "stateMutability": "nonpayable",
      "type": "constructor"
    },
    {
      "anonymous": false,
      "inputs": [
        {
          "indexed": true,
          "internalType": "address",
          "name": "sender",
          "type": "address"
        },
        {
          "indexed": false,
          "internalType": "uint256",
          "name": "value",
          "type": "uint256"
        }
      ],
      "name": "Donate",
      "type": "event"
    },
    {
      "anonymous": false,
      "inputs": [
        {
          "indexed": true,
          "internalType": "address",
          "name": "owner",
          "type": "address"
        },
        {
          "indexed": false,
          "internalType": "uint256",
          "name": "value",
          "type": "uint256"
        }
      ],
      "name": "Withdraw",
      "type": "event"
    },
    {
      "inputs": [],
      "name": "owner",
      "outputs": [
        {
          "internalType": "address",
          "name": "",
          "type": "address"
        }
      ],
      "stateMutability": "view",
      "type": "function",
      "constant": true
    },
    {
      "inputs": [],
      "name": "donate",
      "outputs": [],
      "stateMutability": "payable",
      "type": "function",
      "payable": true
    },
    {
      "inputs": [],
      "name": "getHistory",
      "outputs": [
        {
          "internalType": "uint256",
          "name": "",
          "type": "uint256"
        }
      ],
      "stateMutability": "view",
      "type": "function",
      "constant": true
    }
  ],
  "bytecode": "0x608060405234801561001057600080fd5b50336000806101000a81548173ffffffffffffffffffffffffffffffffffffffff021916908373ffffffffffffffffffffffffffffffffffffffff1602179055506102d3806100606000396000f3fe6080604052600436106100345760003560e01c80638da5cb5b14610039578063aa15efc814610064578063ed88c68e1461008f575b600080fd5b34801561004557600080fd5b5061004e610099565b60405161005b91906101eb565b60405180910390f35b34801561007057600080fd5b506100796100bd565b604051610086919061021f565b60405180910390f35b610097610104565b005b60008054906101000a900473ffffffffffffffffffffffffffffffffffffffff1681565b6000600160003373ffffffffffffffffffffffffffffffffffffffff1673ffffffffffffffffffffffffffffffffffffffff16815260200190815260200160002054905090565b34600160003373ffffffffffffffffffffffffffffffffffffffff1673ffffffffffffffffffffffffffffffffffffffff16815260200190815260200160002060008282546101539190610269565b925050819055503373ffffffffffffffffffffffffffffffffffffffff167f0553260a2e46b0577270d8992db02d30856ca880144c72d6e9503760946aef13346040516101a0919061021f565b60405180910390a2565b600073ffffffffffffffffffffffffffffffffffffffff82169050919050565b60006101d5826101aa565b9050919050565b6101e5816101ca565b82525050565b600060208201905061020060008301846101dc565b92915050565b6000819050919050565b61021981610206565b82525050565b60006020820190506102346000830184610210565b92915050565b7f4e487b7100000000000000000000000000000000000000000000000000000000600052601160045260246000fd5b600061027482610206565b915061027f83610206565b92508282019050808211156102975761029661023a565b5b9291505056fea2646970667358221220a84e57de03614d22ba8b2ddc072a7b72f87149c8c8a6b0f80dd2db7bdd825b3964736f6c63430008110033",
  "immutableReferences": {},
  "source": "// SPDX-License-Identifier:MIT\r\npragma solidity >=0.4.22 <0.9.0;\r\n\r\ncontract Donation {\r\n    address public owner;\r\n    mapping(address => uint256) donationList;\r\n\r\n    event Donate(address indexed sender, uint256 value);\r\n    event Withdraw(address indexed owner, uint256 value);\r\n\r\n    modifier onlyOwner(){\r\n        require(msg.sender == owner,\"Only owner can access this function\");\r\n        _;\r\n    }\r\n\r\n    constructor(){\r\n        //將合約的擁有者設定成建立合約的人\r\n        owner = msg.sender;\r\n    }\r\n\r\n    //收受時間幣的函式\r\n    function donate() public payable{\r\n        donationList[msg.sender] += msg.value;\r\n        emit Donate(msg.sender,msg.value);\r\n\r\n        // address payable receiver = payable(owner);\r\n        // uint256 value = address(this).balance;\r\n        // receiver.transfer(value);\r\n        // emit Withdraw(receiver, value);\r\n    }\r\n\r\n    //查詢總時間幣\r\n    function getHistory() public view returns (uint256){\r\n        return donationList[msg.sender];\r\n    }\r\n        \r\n}",
  "sourcePath": "C:\\Program Files\\Apache Software Foundation\\Tomcat 9.0\\webapps\\ROOT\\time\\contracts\\donation.sol",
  "compiler": {
    "name": "solc",
    "version": "0.8.17+commit.8df45f5f.Emscripten.clang"
  },
  "schemaVersion": "3.4.10",
  "updatedAt": "2022-11-28T15:52:28.587Z",
  "networkType": "ethereum",
  "devdoc": {
    "kind": "dev",
    "methods": {},
    "version": 1
  },
  "userdoc": {
    "kind": "user",
    "methods": {},
    "version": 1
  }
}